:020000040800F2
:10000000484400206902000823100008AB0F0008D4
:10001000211000089903000859140008000000008E
:10002000000000000000000000000000A90100081E
:100030009B030008000000000502000825100008CE
:10004000830200088302000883020008830200087C
:10005000830200088302000883020008830200086C
:10006000830200088302000883020008830200085C
:10007000830200088302000883020008830200084C
:1000800083020008830200088302000800000000C9
:1000900000000000000000000000000083020008D3
:1000A000830200088302000883020008830200081C
:1000B00083020008E11000088302000883020008A0
:1000C00083020008830200088302000883020008FC
:1000D0008302000883020008830200080000000079
:1000E0008302000883020008830200080000000069
:1000F0000000000000000000000000008302000873
:100100000000000083020008830200088302000848
:1001100000000000000000000000000000000000DF
:10012000830200088302000883020008830200089B
:100130008302000800000000000000000000000032
:100140000000000000000000000000008302000822
:10015000830200088302000883020008830200086B
:100160008302000883020008000000000000000075
:10017000000000000000000000000000000000007F
:1001800000000000830200080000000000000000E2
:1001900083020008DFF80CD000F0ECF800480047BC
:1001A00099140008484400202C4B19680868B0E8EE
:1001B000F04F80F30988BFF36F8F4FF0000080F39A
:1001C000118870470000000008480068006880F34C
:1001D00008884FF0000080F3148862B661B6BFF360
:1001E0004F8FBFF36F8F00DF00BF00BF08ED00E04F
:1001F000DFF80C00016841F470010160704700BF36
:1002000088ED00E0EFF30980BFF36F8F134B1A689E
:100210001EF0100F08BF20ED108A20E9F04F10608B
:1002200009B44FF0500080F31188BFF34F8FBFF334
:100230006F8F01F021FE4FF0000080F3118809BCA0
:1002400019680868B0E8F04F1EF0100F08BFB0EC56
:10025000108A80F30988BFF36F8F70472000002059
:10026000EFF30580704700000648804706480047C6
:10027000FEE7FEE7FEE7FEE7FEE7FEE7FEE7FEE756
:10028000FEE7FEE7C5100008950100082DE9F05FC4
:100290000546002092469B468846064681464024F5
:1002A0001BE0284641464746224600F053F8534695
:1002B0005A46C01A914110D311461846224600F002
:1002C0003AF82D1A67EB01084F462246012000211B
:1002D00000F031F817EB00094E41201EA4F1010493
:1002E000DFDC484631462A464346BDE8F09F40EAF7
:1002F00001039B0703D009E008C9121F08C0042AA4
:10030000FAD203E011F8013B00F8013B521EF9D28A
:100310007047D2B201E000F8012B491EFBD27047B2
:100320000022F6E710B513460A4604461946FFF7C1
:10033000F0FF204610BD202A04DB203A00FA02F12B
:10034000002070479140C2F1200320FA03F31943C3
:1003500090407047202A04DB203A21FA02F0002165
:10036000704721FA02F3D040C2F1200291400843C5
:1003700019467047064C074D06E0E06840F001035F
:1003800094E8070098471034AC42F6D3FFF706FF15
:100390005C2A00087C2A0008FEE770472DE9F84F28
:1003A00000224FF0010803254FF00F0E0B6808FAEA
:1003B00002F42340A34271D14E68012E05D0022ED3
:1003C00003D0112E01D0122E15D18668570005FAE0
:1003D00007FC26EA0C06D1F80CC00CFA07FC4CEA24
:1003E000060CC0F808C04668A6430C79C4F3001494
:1003F000944034434460C668570005FA07FC8C6893
:1004000026EA0C06BC403443C4604C68022C01D080
:10041000122C13D1D40800EB8404A346D4F8209006
:1004200054074FEAD46A0EFA0AF629EA06090E6959
:1004300006FA0AF646EA0906CBF8206004680E7947
:1004400024EA0C0406F00306BE40264306604C680E
:10045000E40056D52E4C266846F480462660246873
:1004600022F0030604F4804400942A4C3444A44649
:10047000D4F808489607370F0EFA07F6B443264E0D
:10048000B04201D1002615E0244EB04201D1012630
:1004900010E0234EB04202D102260BE031E0214EA3
:1004A000B04201D1032605E01F4EB04201D104261F
:1004B00000E00726BE402643CCF808681B4E34688F
:1004C0004F689C43FF0300D51C433460174E361D14
:1004D00034684F689C43BF0300D51C433460134EFF
:1004E000083634684F689C43FF0200D51C433460D3
:1004F0000E4E0C3634684F689C43BF0200D51C4337
:100500003460521C102AFFF451AFBDE8F88F000090
:100510004438024000300140000002400004024024
:1005200000080240000C024000100240003C014064
:100530000069084000D001207047426931EA020298
:1005400000D10904816170470AB1816170470904D3
:10055000FBE70000014880687047000010000020A1
:1005600002488168027811448160704710000020C1
:100570000B4810B5016841F400710160016841F455
:1005800080610160016841F480710160032000F026
:100590008DF8002000F006F800F03EF8002010BDB5
:1005A000003C024010B5014688B000221D2000F03A
:1005B0005DF81D2000F04CF813480024016841F05C
:1005C00002010160006805A900F00200069068467B
:1005D00000F018F900F036F90C490D4AB0FBF1F1C2
:1005E0000C48491E026040F2E732C0E90324C0E92A
:1005F000011400F029FB10B1012008B010BD05481E
:1006000000F03EFBF9E700004038024040420F0096
:1006100000040040140300200C4882B0016841F43B
:1006200080410160006800F4804000900748001F8E
:10063000016841F0805101600068002200F08050A4
:1006400000900F21901E02B000F010B84438024014
:10065000002809DB00F01F020121914040098000C1
:1006600000F1E020C0F8001170470000F0B40E4B1C
:100670001B680C46C3F30223C3F10705042D00D900
:100680000425191D072901D2002300E0DB1E0126E5
:1006900006FA05F1491E214099409E40761E1640FB
:1006A0003143F0BC00F0D9BE0CED00E0064900F08B
:1006B000070208684FF6FF03184040EA0220034A89
:1006C00010430860704700000CED00E00000FA05E0
:1006D0002DE9F0470E46050065D0DFF81481D8F803
:1006E0000000F7B200F00F00B04207D288F80070A7
:1006F000D8F8000000F00F00B04254D128683D4CFB
:10070000810712D5400703D5206840F4E0502060EF
:100710002878000703D5206840F4604020602068F6
:10072000A96820F0F000084320602878C0072DD089
:10073000304968680839012812D0022813D00328EC
:1007400011D00968890700292DDA216821F00301F9
:1007500001432160FFF7FEFE814641F2883A0EE038
:1007600009688903EFE709688901ECE7FFF7F2FE02
:10077000A0EB0901514502D90320BDE8F0872068AC
:10078000696800F00C00B0EB810FEFD1D8F80010D1
:10079000404601F00F01B14207D90770006800F030
:1007A0000F00B04201D00120E7E72878400705D5C7
:1007B0002068E96820F4E0500843206028780007AA
:1007C00006D52068296920F4604040EAC100206015
:1007D00000F058F82168084AC1F30311515CC84081
:1007E0000649086006480068FFF7DCFE0020C4E701
:1007F000003C024008380240202A00081C0000206B
:10080000140000200F2202600C4A136803F0030357
:100810004360136803F0F0038360136803F4E0534C
:10082000C36012684FF4E05303EAD2020261044845
:10083000006800F00F0008607047000008380240B0
:10084000003C02400448054900680968044AC1F3B5
:100850008221515CC84070471C00002008380240CB
:10086000302A00080448054900680968044AC1F3B1
:100870004231515CC84070471C00002008380240DB
:10088000302A0008154810B5006810F00C02144812
:1008900013D01449042A0FD0082A0ED10F4C241F5C
:1008A0002268236802F03F025B0207D52068C0F38C
:1008B0008810A0FB010106E0084610BD2168C1F3C5
:1008C0008811A1FB00010023FFF7E0FC2168C1F3C0
:1008D0000141491C4900B0FBF1F010BD083802404D
:1008E0000024F40040787D012DE9F84F040076D013
:1008F0002078DFF838A3CE4DC00749D0DAF80010D1
:100900005046C1F38101012908D00068C0F381007D
:1009100002280AD1281D0068400206D528688003F5
:1009200036D560680028E2D032E06068B0F5803FDC
:1009300010D0B0F5A02F286810D020F480302860A7
:10094000286820F4802028606068A0B1FFF702FECC
:1009500006460CE0286840F48030F4E740F480203C
:100960002860F7E7FFF7F6FD801B642873D8286836
:100970008003F7D50CE0FFF7EDFD064605E000BF6C
:10098000FFF7E8FD801B6428F0D828688003F7D4BF
:100990002078DFF8A08280074FF000093ED5DAF812
:1009A0000010504611F00C0F09D00068C0F3810010
:1009B00002280BD19D48001F0068400206D4286819
:1009C000800715D5E068012809D111E0E068B8B1C9
:1009D0000120C8F80000FFF7BDFD064605E020E154
:1009E000FFF7B8FD801B0228C0D828688007F7D51C
:1009F0002868216920F0F80040EAC10028600DE075
:100A0000C8F80090FFF7A6FD064604E0FFF7A2FD38
:100A1000801B02281FD828688007F7D42078000799
:100A200022D5824E844861696C3671B10121016022
:100A3000FFF790FD074604E0FFF78CFDC01B02287E
:100A400009D830688007F7D50EE0C0F80090FFF7AE
:100A500081FD074605E082E0FFF77CFDC01B022810
:100A60007DD830688007F7D42078400768D5DFF854
:100A7000BCB100270BF1380BDBF80000C0000BD431
:100A8000DBF8001041F08051CBF80010DBF80000DB
:100A9000012700F080500090684E3068C00510D4E7
:100AA000306840F480703060FFF754FD009005E03E
:100AB000FFF750FD0099401A022850D83068C00551
:100AC000F6D55A4EA068683601280FD00528306840
:100AD00010D020F001003060306820F00400306059
:100AE000A068B8B1FFF736FD00900FE0306840F025
:100AF0000100F4E740F004003060F7E7FFF72AFD5B
:100B00000099411A41F28830814266D830688007E6
:100B1000F4D50EE0FFF71EFD009007E0FFF71AFD89
:100B20000099411A41F28830814256D830688007D6
:100B3000F4D42FB1DBF8001021F08051CBF8001075
:100B4000A069D0B3DAF800205146C2F38102022A2C
:100B50004AD00228484607D0C8F8600000E03CE0D0
:100B6000FFF7F8FC04463BE04746C8F86000FFF793
:100B7000F1FC064605E000BFFFF7ECFC801B0228F5
:100B80002BD828688001F7D4D4E907010843A16A6B
:100B90002B4A490802EB0141626A41EA821108438B
:100BA00094F82C1040EA01612048001F01600120E8
:100BB0003866FFF7CFFC044605E034E0FFF7CAFCD7
:100BC000001B022809D828688001F7D52BE000BF58
:100BD000FFF7C0FC001B022802D90320BDE8F88FF4
:100BE00028688001F4D41EE00128F7D00868E26983
:100BF00000F48001914214D1226A00F03F01914239
:100C00000FD147F6C071626A0140914209D1A26AD0
:100C100000F44031914204D1E16A00F070608842F2
:100C200001D00120DAE70020D8E7000008380240B0
:100C30000038024000004742800E474200700040EA
:100C40000000FFFF7047704710B5040003D094F810
:100C50003D0010B107E0012010BD002084F83C00E9
:100C6000204600F00CF8022084F83D00211D206889
:100C700000F03CFA012084F83D00002010BD7047D0
:100C80000168CA6842F00102CA600068816801F028
:100C90000701062903D0016841F00101016000202D
:100CA0007047704770B50446006801694FF0000551
:100CB000C943890715D4C168C943890711D4E91EFE
:100CC000016101202077206880698007204602D0DA
:100CD000FFF7E7FF04E000F098F8204600F096F8F0
:100CE000257720680169C943490717D4C168C943FA
:100CF000490713D46FF004010161022020772068B6
:100D0000806910F4407F204602D0FFF7CAFF04E05C
:100D100000F07BF8204600F079F82577206801691B
:100D2000C943090716D4C168C943090712D46FF033
:100D300008010161042020772068C06980072046EF
:100D400002D0FFF7AEFF04E000F05FF8204600F0AD
:100D50005DF8257720680169C943C90617D4C168C1
:100D6000C943C90613D46FF0100101610820207730
:100D70002068C06910F4407F204602D0FFF791FF41
:100D800004E000F042F8204600F040F825772068A3
:100D90000169C943C90708D1C168C943C90704D15A
:100DA000891E0161204600F033F820680169C943BB
:100DB000090609D4C168C943090605D46FF080014A
:100DC00001612046FFF73EFF20680169C9434906DB
:100DD00009D4C168C943490605D46FF040010161D7
:100DE000204600F01FF820680169C94389060BD42A
:100DF000C168C943890607D46FF02001016120460C
:100E0000BDE87040FFF71FBF70BD7047704700001E
:100E100000680349884201D1FFF7A2BB7047000078
:100E200000040040704770B5040004D094F8390005
:100E3000002510B106E0012070BD84F8385020462E
:100E400000F022F8242084F839002068C16821F4D9
:100E50000051C160204600F039FA2068016921F490
:100E6000904101612068416921F02A0141612068B7
:100E7000C16841F40051C160E563202084F8390065
:100E800084F83A00002070BD10B586B004461421E5
:100E90006846FFF745FA13492068884220D1124876
:100EA000016841F400310160006800F400300590F1
:100EB0000D481038016841F0010101600068694681
:100EC00000F0010005900C2000900220019001200C
:100ED000029003200390072004900448FFF75EFA75
:100EE00006B010BD004400404038024000000240FF
:100EF0002DE9F843044690F839001F4616460D4682
:100F0000202850D1B5B1AEB194F8380001284AD0AC
:100F1000012084F838004FF00008C4F83C802120FC
:100F200084F83900FFF716FBA6848146E68484F82E
:100F3000388026E00120BDE8F883E08C401EE08484
:100F4000A0684B46B0F5805F4FF000024FF0800183
:100F50002046009703D000F04DFAE8B90DE000F00C
:100F600049FAC8B928882168C0F308004860206998
:100F700008B16D1C05E0AD1C03E0216815F8010BFC
:100F80004860E08C0028D8D14B4600224021204602
:100F9000009700F02FFA08B10320CCE7202084F856
:100FA00039000020C7E70220C5E7FEE730B587B06B
:100FB00014216846FFF7B4F916480024016841F08F
:100FC00004010160016801F004010591016841F02C
:100FD000010101600068104D00F0010005902246FB
:100FE00020212846FFF7B0FA4FF40050CDE9000465
:100FF00069460A480294FFF7D1F9202000900120A9
:10100000CDE90104694628460394FFF7C7F907B004
:1010100030BD0000303802400000024000080240AD
:10102000FEE7704710B5502080F31188BFF34F8F53
:10103000BFF36F8F01F0EEFA18B104494FF0805002
:101040000860002080F3118810BD000004ED00E06E
:1010500010B592B030216846FFF762F914210CA850
:10106000FFF75EF915480024016841F080510160E6
:10107000006800F0805011901148016821F440414F
:1010800041F4004101600068069400F44040119072
:101090000220009001200390102004906846FFF782
:1010A00023FC0F20CDE90C040E940F9400210CA812
:1010B0001094FFF70DFB12B010BD00004038024045
:1010C000007000400548016841F470010160034967
:1010D0004FF00060803908607047000088ED00E044
:1010E0000148FFF7DFBD000014030020F0B50268DF
:1010F0001D4B1E4C9F031E4D1E4E984207D0B842FA
:1011000005D0A04203D0A84201D0B04204D122F0C1
:10111000700C4A6842EA0C02984210D0B8420ED0D5
:10112000A0420CD0A8420AD0B04208D0124CA04233
:1011300005D0124CA04202D0114CA04203D122F49F
:101140004074CA6822434C6922F080022243026044
:101150008A68C2620A688262984201D109690163A1
:1011600001214161F0BD0000000001400004004089
:1011700000080040000C00400040014000440140D5
:101180000048014086B0142210A16846FFF7AFF86E
:10119000134D144C4FF0FF364FF47A772021284638
:1011A000FFF7CBF93146A06801F072F8052314224D
:1011B00069460D48FFF79CFE00231A461946A068B1
:1011C00000F0B6FF384600F0B7F9E7E748656C6C09
:1011D0006F2066726F6D20546872656164310D0A0C
:1011E00000000240000000208000002086B0142291
:1011F00015A16846FFF77BF8184E194C4FF40055BF
:101200004FF0FF374FF47A7829463046FFF790F9D0
:10121000A8B9012200231146E06801F087F9394698
:10122000A06801F035F80523142269460D48FFF740
:101230005FFE00231A461946A06800F079FF404679
:1012400000F07AF9E0E7000048656C6C6F20667288
:101250006F6D20546872656164320D0A00080240A7
:10126000000000208000002086B0142210A16846F3
:10127000FFF73DF8134C4FF0FF352B4605AAFF2131
:10128000002001F02BFA0598C007F6D02946A06887
:1012900000F0FEFF0523142269460B48FFF728FEE5
:1012A00000231A461946A06800F042FFE5E7000057
:1012B00048656C6C6F2066726F6D20546872656152
:1012C00064330D0A00000020800000202DE9F04169
:1012D000044600680169E26821F44051114301614C
:1012E0002169A068E26908436169114308432168E4
:1012F000CA6849F20C639A430243CA602068416994
:10130000A26921F4407111434161E0691927642504
:101310003226B0F5004F354A354920684FF00008B5
:1013200006D0884201D0904236D1FFF79BFA35E0D3
:10133000884201D0904202D1FFF794FA01E0FFF712
:1013400081FA61684A18A0FB070148EB0803FEF721
:101350009DFF0146B0FBF5F00201B1FBF5F06FF027
:101360001803584301EB800006EBC000B0FBF5F01A
:1013700000F0F80002EB4002B1FBF5F0584301EB3E
:10138000800006EBC000B0FBF5F000F0070021681C
:1013900010448860BDE8F081FFF754FA61688B0F54
:1013A0008A00A0FB0701FEF771FF0146B0FBF5F0D4
:1013B0006FF01802504301EB800006EB0010B0FB09
:1013C000F5F000F0F002B1FBF5F002EB0012B1FB1A
:1013D000F5F06FF01803584301EB800006EB0010A6
:1013E000B0FBF5F000F00F00D1E700000014014061
:1013F000001001402DE9F041984617460E4604467C
:10140000069D1DE0681C1BD02DB1FFF7A3F8A0EBD3
:101410000800A84214D92068C16821F4D071C160C5
:101420002068416921F001014161202084F83900E0
:1014300084F83A00002084F838000320BDE8F081E9
:101440002068006836EA000004D00020B842D9D0F5
:101450000020F3E70120F9E7FEE70907090E00285D
:1014600004DB00F1E02080F80014704700F00F006A
:1014700000F1E02080F8141D704702E008C8121F38
:1014800008C1002AFAD170477047002001E001C16D
:10149000121F002AFBD1704798B0FFF769F8FFF7D9
:1014A000D7FDFFF783FD1E481C49002401604FF45F
:1014B000E131C0E901140C21C460C0E90441846138
:1014C000C461FFF7B0FC159415A8169400F040F81D
:1014D000144C1C221449A0606846FEF708FF002146
:1014E000684600F03DF8104920601C221C3107A816
:1014F000FEF7FDFE002107A800F032F80A496060FF
:101500001C2238310EA8FEF7F2FE00210EA800F0D2
:1015100027F8E06000F017F8FEE700000044004004
:101520008000002000000020CC2900080146002097
:10153000842900D0C81C704710B500B9012000F004
:10154000BDFB002010BD10B500F058FC002010BD00
:1015500041684FF0010009B100F041BD00F034BD19
:101560007FB50D4604464169B0F9080081B1A16913
:1015700071B1FFF7DBFFD4E905128DE80700D4E96C
:1015800000102B46226900F0A6FF039004B070BD46
:10159000FFF7CCFF03A9CDE90001208A2B4682B2D8
:1015A000D4E9001000F06AFF012801D00020EDE727
:1015B0000398EBE72DE9F041184C0F4605466669A4
:1015C0002068001D00F0B6FA38B9206890F82C1099
:1015D00001208840A1698143A161681C07D137B10E
:1015E0002168BDE8F0410E48091D00F0E7BA206807
:1015F0003544B5424560216805D2A068BDE8F04198
:10160000091D00F0C3BA6068091D00F0BFFA206B25
:10161000854200D22563BDE8F08100002000002053
:10162000300400202DE9F041054600F0D3FA2E4C9D
:101630002069401C206120682C4F10B1E06940B344
:101640002DE025602069012829D1002606EB8600BF
:1016500007EB800000F08CFA761C072EF6D32348A7
:101660008C3000F085FA2148A03000F081FA1F4844
:10167000B43000F07DFA1D48C83000F079FA1B48FC
:10168000DC3000F075FA19488C3060601430A060CE
:1016900005E02068E96AC06A884200D82560E06AEF
:1016A000401CE062E96A0120A26988401043A06101
:1016B00001EB810007EB8000291D00F07FFA00F0AC
:1016C000A9FAE06900280CD02068E96AC06A88425B
:1016D00007D207494FF080500860BFF34F8FBFF328
:1016E0006F8FBDE8F081000020000020540300202F
:1016F00004ED00E02DE9F041856B17460446002615
:10170000026C82B1C7B1E068FEF7F1FDE168206CC0
:10171000091AE1602268914202D26168081AE06009
:10172000022F16D017E02068A8B9606801F01CF8F5
:101730000646002060600EE0A068FEF7D8FD216C30
:10174000A0680844A0606168884204D32068A06053
:1017500001E005B16D1E6D1CA5633046BDE8F0814A
:1017600010B5044690F8510058B101280CD0022859
:101770000FD0502080F31188BFF34F8FBFF36F8FCE
:10178000FEE7206B00F05AFA2046BDE8104000F05A
:1017900055BA10BD10484FF47051420706D0C01D15
:1017A0000D4920F00700411AC1F570510B4A002382
:1017B0000144C2E900030839103A21F00701116021
:1017C0004B600B600B1AC0E9001393604FF00040B0
:1017D0005360D06070470000440400206C0000207B
:1017E000144E154CA6F1C8074FF08058DFF84C9006
:1017F00012E000BF00F0EEF9F068C568281D00F0A7
:1018000099F92069401E2061E068401EE06000F008
:1018100001FA2846FFF7A4FFE0680028EAD13868FB
:101820000128F9D9C9F80080BFF34F8FBFF36F8F3C
:10183000F2E700001C0400202000002004ED00E07E
:10184000002807D00021416001600B460A46C160B4
:1018500000F06EBC70470346009829B10260C0E9F1
:101860000F31012100F020BC0060F8E72DE9F047BE
:101870009A46DDE9098481466FF00303206B03EB90
:1018800082021044089D20F00706700707D0502000
:1018900080F31188BFF34F8FBFF36F8FFEE72318DC
:1018A0000A5C83F834200A5C12B1401C1028F6D37D
:1018B000002784F84370072D00D30625E562C4E9AC
:1018C0001157201D00F05FF904F1180000F05BF9DA
:1018D0002461C5F107006462A061E76484F8507078
:1018E00052464946304600F00FF92060B8F1000F2B
:1018F00001D0C8F80040BDE8F087000030B51149BC
:1019000000E011460A688242FBD34B685C188442AF
:1019100003D1406818444860084643681C18944244
:1019200009D1084C103C2468A24209D052681A44DC
:1019300042600A6812680260814200D0086030BDCF
:101940000460F9E76C00002010B5044600F042F98D
:10195000A06B28B15FF0000400F05CF9204610BDD8
:101960000124F9E706484168096829B14168C96856
:10197000C9684968016370474FF0FF31FAE700001A
:101980002000002008484068401C4FF0500080F3C1
:10199000118804D0BFF34F8FBFF36F8FFEE7BFF303
:1019A0004F8FBFF36F8FFEE7740000202DE9F041E9
:1019B000044600F00FF994F9455004F1240609E0BB
:1019C000606A48B1304600F065FF08B100F0A4F944
:1019D0006D1E6DB2002DF3DC4FF0FF3684F84560CC
:1019E00000F018F900F0F6F894F9445004F11007EB
:1019F00009E0206948B1384600F04CFF08B100F01A
:101A00008BF96D1E6DB2002DF3DC84F84460BDE8E7
:101A1000F04100F0FFB800002DE9F0410546002735
:101A200000F022FA314E306808B9FFF7B3FEF068D3
:101A300005424BD1C5B3083568070ED005F0070045
:101A4000C0F108000544680707D0502080F31188D2
:101A5000BFF34F8FBFF36F8FFEE72DB370688542E2
:101A600034D82248103001460C6801E020460C466C
:101A70006168A94202D221680029F7D131688C42FD
:101A800024D007682168016060680837411B10296D
:101A90000FD96019420708D0502080F31188BFF396
:101AA0004F8FBFF36F8FFEE710E041606560FFF777
:101AB00025FF61687068401A7060B268904200D279
:101AC000B060F06801430020C4E9000100F01CFF91
:101AD000780707D0502080F31188BFF34F8FBFF3F2
:101AE0006F8FFEE73846BDE8F08100005C00002003
:101AF0000449086818B10868826C521C826408683E
:101B0000704700002000002010B5031F4FF08074C4
:101B10001C601B1F21F001011960191F044B0B6091
:101B200014390A60091F6FF0020244380A6010BDC0
:101B300085190008D0E9013201699A60D0E90123D2
:101B40005A604A68824201D182684A60002202617A
:101B50000868401E0860086870470000034B036077
:101B600003F154000860802010607047C00000201E
:101B700000F108014FF0FF32C0E90112C1600161BC
:101B800000210160704700210161704730B50B688A
:101B90005A1C02D000F1080202E0026904E0224669
:101BA000546825689D42FAD953684B6099608A60F1
:101BB000516008610168491C016030BD42684A609B
:101BC00093688B6093685960916008610168491C53
:101BD00001607047502080F31188BFF34F8FBFF32F
:101BE0006F8F0A494868401C486001280CD108489A
:101BF000006810F0FF0F07D0502080F31188BFF36A
:101C00004F8FBFF36F8FFEE7704700007400002016
:101C100004ED00E00849486828B1401E486001D141
:101C200080F311887047502080F31188BFF34F8FE5
:101C3000BFF36F8FFEE700007400002070B500282E
:101C400027D0144DA0F108046168E868014207D16B
:101C5000502080F31188BFF34F8FBFF36F8FFEE7E3
:101C600022683AB1502080F31188BFF34F8FBFF341
:101C70006F8FFEE78143616000F0F6F86068696885
:101C8000084468602046FFF739FEBDE8704000F068
:101C90003BBE70BD5C0000204FF0E02000210161E0
:101CA000816105494FF47A720968B1FBF2F1491E6E
:101CB00041610721016170471C00002010B502003E
:101CC00014D00F48806B38B1502080F31188BFF3D7
:101CD0004F8FBFF36F8FFEE700F0C6F8002110466C
:101CE000FFF768FC00F010FE002807D105494FF00F
:101CF00080500860BFF34F8FBFF36F8F10BD00009F
:101D00002000002004ED00E002498A6A026049696F
:101D1000416070472000002001490120486270475F
:101D20002000002010B50C4650B10949096818314F
:101D3000FFF72CFF2046BDE810400121FFF73ABC19
:101D4000502080F31188BFF34F8FBFF36F8FFEE7F2
:101D50002000002070B504004BD0A26CA2B1606CD2
:101D6000884200D30146E06A884242D0012A40D12D
:101D7000204D2A6894420FD1502080F31188BFF380
:101D80004F8FBFF36F8FFEE7502080F31188BFF3B2
:101D90004F8FBFF36F8FFEE7E162A269002A02DB7B
:101DA000C1F10701A161144E00EB8000616906EBEF
:101DB000800081421DD1201DFFF7BCFE012150B9DA
:101DC000E06A00EB800256F8222022B9AA6901FAE3
:101DD00000F08243AA61E06AAA6981401143A961C7
:101DE00000EB800006EB8000211DBDE87040FFF78E
:101DF000E5BE70BD200000205403002010B586B061
:101E00000024039405AA04A903A80494FFF7A6FEDE
:101E1000DDE903010094CDE9011000230EA1104873
:101E2000059A00F058FB0F490028486311D0502054
:101E300080F31188BFF34F8FBFF36F8F4FF0FF30E8
:101E400008630120C8614C6106B0BDE8104000F095
:101E500041B806B010BD000049444C4500000000E8
:101E6000E1170008200000200248816B491C8163B3
:101E700070470000200000201448816B11B101213F
:101E800041627047002141628169B1FA81F1C1F17B
:101E90001F0101EB81020E4951F822306BB101EBB9
:101EA000820101F108034A6852684A609A4201D1EE
:101EB00052684A60D16801607047502080F31188F1
:101EC000BFF34F8FBFF36F8FFEE7000020000020AD
:101ED000540300201CB537480168374A914207D1A6
:101EE000502080F31188BFF34F8FBFF36F8FFEE751
:101EF00000683149491E884207D1502080F311887B
:101F0000BFF34F8FBFF36F8FFEE72C490878019026
:101F1000FF20087008788DF800009DF800009DF8FB
:101F2000002000F0F000904207D0502080F311888C
:101F3000BFF34F8FBFF36F8FFEE79DF80000204B7C
:101F400000F0500018700720986005E09DF8002010
:101F500052008DF80020401E9DF800201206F5D496
:101F60009860032807D0502080F31188BFF34F8F6B
:101F7000BFF36F8FFEE74FF44070986001980870D0
:101F80000C482030016841F470010160016841F0A3
:101F900070410160FFF780FE00205860FEF728F9CD
:101FA0000848016841F040410160FEF70DF900204A
:101FB0001CBD000000ED00E071C20F4100E400E034
:101FC0007400002034EF00E010B50246002101202B
:101FD00000F012F80446FFF733FC204610BD38B578
:101FE0000B46002200901146012000F029F804461B
:101FF000FFF726FC204638BDF8B517460E4605000B
:1020000014D0DEB105FB06F04830FFF705FD0400F3
:102010000AD0002084F8460004F148023B463146CD
:1020200028460094FFF717FC2046F8BD502080F3A7
:102030001188BFF34F8FBFF36F8FFEE70020E3E7F8
:1020400038B5049D18B153B1CAB181B120E0502018
:1020500080F31188BFF34F8FBFF36F8FFEE75020DF
:1020600080F31188BFF34F8FBFF36F8FFEE75020CF
:1020700080F31188BFF34F8FBFF36F8FFEE739B145
:10208000502080F31188BFF34F8FBFF36F8FFEE7AF
:1020900048241C46012384F846302B460094FFF761
:1020A000DAFB204638BD000070B50D46040025D08F
:1020B000FFF790FDD4E90F20216802FB0011616059
:1020C0000021A1632168A1600A46D4E90F01401EE6
:1020D00000FB0121E16021464FF0FF3001F8440F81
:1020E000487004F110008DB1FFF742FD04F12400A7
:1020F000FFF73EFDFFF78EFD012070BD502080F3FD
:102100001188BFF34F8FBFF36F8FFEE7216900295E
:10211000F0D000F0BFFB0028ECD004494FF0805015
:102120000860BFF34F8FBFF36F8FE3E704ED00E06C
:102130002DE9FF4782B01D468A464FF00008040093
:1021400003D0BAF1000F08D011E0502080F31188BD
:10215000BFF34F8FBFF36F8FFEE7206C38B1502075
:1021600080F31188BFF34F8FBFF36F8FFEE7022D0F
:102170000AD1E06B012807D0502080F31188BFF30B
:102180004F8FBFF36F8FFEE700F036FA3F4F4FF0EF
:1021900000094FF0805648B9049838B1502080F3B8
:1021A0001188BFF34F8FBFF36F8FFEE7FFF712FD6C
:1021B000A06BE16B884207D3022D05D00498D0B103
:1021C000B8F1000F1AD01EE02A4651462046FFF70C
:1021D00091FA616A19B104F1240000F05BFB20B1AF
:1021E0003E60BFF34F8FBFF36F8FFFF713FD0120EA
:1021F00006B0BDE8F087FFF70DFD22E06846FFF767
:1022000083FD4FF00108FFF705FDFFF72DFEFFF7F7
:10221000E1FC94F94400401C01D184F8449094F905
:102220004500401C01D184F84590FFF7F3FC04A958
:10223000684600F0E9F830B12046FFF7B7FB00F040
:1022400063FB0020D4E7FFF7C5FCA06BE16B88427D
:1022500013D1FFF7DFFC04F110000499FFF762FDD2
:102260002046FFF7A3FB00F04FFB00289ED13E6005
:10227000BFF34F8FBFF36F8F98E7FFF7CBFC20467C
:10228000FFF794FB00F040FB90E7000004ED00E056
:102290002DE9F343002683B00400354609D0206CB5
:1022A00078B1502080F31188BFF34F8FBFF36F8F49
:1022B000FEE7502080F31188BFF34F8FBFF36F8F7D
:1022C000FEE700F099F9DFF83C814FF000094FF08C
:1022D000805748B9049838B1502080F31188BFF373
:1022E0004F8FBFF36F8FFEE7FFF774FCA06BC8B191
:1022F000401EA063206810B9FFF7FAFB60602069F8
:1023000050B104F1100000F0C5FA28B1C8F800700F
:10231000BFF34F8FBFF36F8FFFF77CFC012005B039
:10232000BDE8F083049808B166B10FE03DB15020DC
:1023300080F31188BFF34F8FBFF36F8FFEE7FFF776
:1023400069FC5DE06846FFF7DFFC0126FFF762FCF1
:10235000FFF78AFDFFF73EFC94F94400401C01D1D1
:1023600084F8449094F94500401C01D184F84590CC
:10237000FFF750FC04A9684600F046F80028204604
:1023800012D0FFF713FB00F0BFFA2046FFF7DCFA8C
:102390000028A9D09DB3FFF71DFC606A50B3206BE5
:1023A0000068C0F1070126E0FFF7CEFAE0B120682F
:1023B00038B9FFF70FFC606800F022FA0546FFF716
:1023C00029FC04F124000499FFF7ACFC2046FFF738
:1023D000EDFA00F099FA002886D1C8F80070BFF332
:1023E0004F8FBFF36F8F7FE72046FFF7DFFA00F0D4
:1023F0008BFA79E700216068FFF7ACFC9FE7FFE705
:1024000000208CE704ED00E02DE9F0410C460500CA
:1024100011D0C4B1FFF7DEFB174B5A696E68206814
:10242000911B471C17D02F689B6A9F4219D0964278
:1024300017D8012410E0502080F31188BFF34F8F8C
:10244000BFF36F8FFEE7502080F31188BFF34F8FEB
:10245000BFF36F8FFEE70024FFF7DCFB2046BDE8EB
:10246000F081884205D9401A20602846FFF74CFCCD
:10247000F1E700202060DCE7200000202DE9FF5F6D
:102480008346DDE90E87994616468A469000FFF797
:10249000C3FA05001CD05420FFF7BEFA040014D084
:1024A0000020256384F85100CDE90240CDE9008782
:1024B0004B46324651465846FFF7D8F92046FFF7BB
:1024C000B1F8012004B0BDE8F09F2846FFF7B6FB45
:1024D0004FF0FF30F6E7F0B585B0DDE90B640A9DFB
:1024E000A6B1DCB1542700972663022684F8516018
:1024F000002604AFCDE90246CDE90057FFF7B6F953
:102500002046FFF78FF8049805B0F0BD502080F307
:102510001188BFF34F8FBFF36F8FFEE7502080F31A
:102520001188BFF34F8FBFF36F8FFEE72DE9F041A6
:102530001F4690460D46012690B10446FFF74AFB20
:102540000FB1E06C386094F85000022184F850100C
:10255000B8F1050F16D2DFE808F0150B0E141200C3
:10256000502080F31188BFF34F8FBFF36F8FFEE7CA
:10257000E16C294301E0E16C491CE16402E00228BE
:1025800003D0E564012802D02AE0002628E0201DBF
:10259000FFF7D0FA154DE06A0121AA698140114385
:1025A000A961134900EB800001EB8000211DFFF7BA
:1025B00005FBA06A38B1502080F31188BFF34F8F1C
:1025C000BFF36F8FFEE7E06A2968C96A884207D9BE
:1025D00008494FF080500860BFF34F8FBFF36F8FF3
:1025E000FFF718FB3046BDE8F08100002000002016
:1025F0005403002004ED00E00548C16919B1806B67
:1026000018B1002070470120704702207047000079
:10261000200000202DE9F0412E4C0027A06B40B196
:10262000206A401C2062606A00B101273846BDE87C
:10263000F0816669761C666113D16068006838B104
:10264000502080F31188BFF34F8FBFF36F8FFEE7E9
:102650006068A1686160A060A06A401CA062FFF78A
:1026600081F9206BDFF87080864209D360680068CA
:1026700080B16068C068C568686886420DD2206312
:102680002068C06A00EB800158F821000128CAD9EF
:102690000127C8E74FF0FF30F1E7281DFFF74AFA9E
:1026A000A86A18B105F11800FFF744FAE86A012199
:1026B000A26981401143A16100EB800108EB810018
:1026C000291DFFF77BFAE86A2168C96A8842CDD3E1
:1026D0000127CBE720000020540300202DE9F04122
:1026E0001E46154688460746FFF774FA1C4C2068BC
:1026F00090F85000022814D02068C16CB943C1641E
:102700002168012081F850005EB101213046FEF7BA
:1027100051FF14494FF080500860BFF34F8FBFF353
:102720006F8FFFF777FAFFF755FA15B12068C06C85
:102730002860206890F85000022801D0002505E0AC
:102740002068C16C21EA0801C164012521680020CC
:1027500081F85000FFF75EFA2846BDE8F0810000DE
:102760002000002004ED00E070B504004FF00001EF
:1027700040D0214D2868844207D0502080F3118832
:10278000BFF34F8FBFF36F8FFEE7A06C38B1401ED1
:10279000A064636CE26A9A422CD040B12AE05020D7
:1027A00080F31188BFF34F8FBFF36F8FFEE7201DBB
:1027B000FFF7C0F9114A012150B9E06A00EB80032C
:1027C00052F8233023B9AB6901FA00F08343AB61BF
:1027D000606CE062C0F10700A061E06AAB69814013
:1027E0001943A96100EB800002EB8000211DFFF777
:1027F000E5F90121084670BD2000002054030020A7
:1028000070B504004FF0000038D0204DE16A2A680E
:10281000D26A914233D2A069002804DB2868C06ADA
:10282000C0F10700A0611A4E01EB8101606906EB5F
:10283000810188421ED1201DFFF77CF9012150B98A
:10284000E06A00EB800256F8222022B9AA6901FA58
:1028500000F08243AA612868C06AE062AA698140E8
:102860001143A96100EB800006EB8000211DFFF7FA
:10287000A5F902E02868C06AE062012070BD616CC1
:102880002A68D26A9142F8D370BD0000200000206F
:10289000540300202DE9F041C068C468ACB104F1D4
:1028A00018000746FFF746F9154DA86B0126A0B1A1
:1028B00039461448FFF782F9E06A2968C96A8842F4
:1028C0001CD901206E62BDE8F081502080F3118890
:1028D000BFF34F8FBFF36F8FFEE7201DFFF72AF97D
:1028E000E16AAA6906FA01F01043A86101EB8100D0
:1028F0000449B43901EB8000211DDBE70020E2E749
:1029000020000020080400202DE9F0472C4D002471
:102910002746A86B38B1FFF75DF9A86B401EA86386
:10292000A86B40B146E0502080F31188BFF34F8F71
:10293000BFF36F8FFEE72969224E0120D1B3A6F1C4
:10294000B40980463068E8B1F068C46804F1180042
:10295000FFF7F0F8201DFFF7EDF8E06AAA6908FA22
:1029600000F11143A96100EB800109EB8100211DF9
:10297000FFF724F9E06A2968C96A8842E2D3C5F8FA
:102980002480DFE70CB1FEF7EDFF2C6A44B1464628
:10299000FFF740FE00B16E62641EF9D1002028628C
:1029A000686A38B10849012738070860BFF34F8FBC
:1029B000BFF36F8FFFF72EF93846BDE8F0870000B0
:1029C000200000200804002004ED00E0502A000848
:1029D00085110008000000000000000080000000D9
:1029E0000000000000000000382A0008ED11000877
:1029F000FEFF00000000000080000000000000005A
:102A000000000000442A000869120008FEFF0000D0
:102A10000000000080000000000000000000000036
:102A2000000000000000000001020304060708097E
:102A300000000000010203046D795461736B3032B1
:102A4000000000006D795461736B303300000000AA
:102A500064656661756C745461736B007C2A000850
:102A600000000020800000007A140008FC2A000802
:102A700080000020C84300008A1400080000000005
:102A80000000000000000000000000000100000045
:102A900010000000000000000024F400000000000E
:102AA0000000000000000000000000000000000026
:102AB0000000000000000000000000000000000016
:102AC0000000000000000000000000000000000006
:102AD00000000000000000000000000000000000F6
:102AE00000000000000000000000000000000000E6
:0C2AF00000000000AAAAAAAA0000000032
:040000050800019559
:00000001FF
