:020000040800F2
:100000001804002001010008810700087D0700088E
:100010007F0700086D0100082108000800000000AB
:10002000000000000000000000000000850700083C
:100030006F01000800000000830700088707000820
:100040001B0100081B0100081B0100081B01000820
:100050001B0100081B0100081B0100081B01000810
:100060001B0100081B0100081B0100081B01000800
:100070001B0100081B0100081B0100081B010008F0
:100080001B0100081B0100081B0100081B010008E0
:100090001B0100081B0100081B0100081B010008D0
:1000A0001B0100081B0100081B0100081B010008C0
:1000B0001B0100081B0100081B0100081B010008B0
:1000C0001B0100081B0100081B0100081B010008A0
:1000D0001B0100081B0100081B0100081B01000890
:1000E0001B0100081B0100081B010008DFF80CD0F1
:1000F00000F02AF8004800476108000818040020B2
:100100000648804706480047FEE7FEE7FEE7FEE7B1
:10011000FEE7FEE7FEE7FEE7FEE7FEE7D907000899
:10012000ED000008D2B201E000F8012B491EFBD21D
:1001300070470022F6E710B513460A4604461946F2
:10014000FFF7F0FF204610BD064C074D06E0E068C3
:1001500040F0010394E8070098471034AC42F6D30E
:10016000FFF7C8FF88080008A8080008FEE77047E6
:100170000148806870470000040000200248816840
:10018000027811448160704704000020074810B5D0
:10019000016841F010010160032000F067F80020C1
:1001A00000F006F800F024F8002010BD0020024006
:1001B00070B50D4D04464FF47A712878B1FBF0F01C
:1001C0000A490968B1FBF0F000F0C4FA48B9102CF4
:1001D00007D200222146501E00F028F800206C6053
:1001E00070BD012070BD0000040000201000002040
:1001F0000C4808B5816941F001018161816901F014
:1002000001010091C16941F08051C161C06900F0F4
:10021000805000900448416821F0E06141F0806125
:10022000416008BD0010024000000140F0B40E4BD8
:100230001B680C46C3F30223C3F10705042D00D944
:100240000425191D072901D2002300E0DB1E012629
:1002500006FA05F1491E214099409E40761E16403F
:100260003143F0BC00F0DDBA0CED00E0064900F0CF
:10027000070208684FF6FF03184040EA0220034ACD
:1002800010430860704700000CED00E00000FA0524
:100290002DE9F0470F46050061D0434E306800F06D
:1002A0000700B84209D2306820F0070038433060B8
:1002B000306800F00700B84251D128683B4C8107F4
:1002C00012D5400703D5606840F4E060606028788C
:1002D000000703D5606840F4605060606068A968FA
:1002E00020F0F000084360602878C00728D06868D4
:1002F000012810D02168022810D0890700292EDAA1
:10030000616821F0030101436160FFF731FF80461E
:1003100041F288390DE021688903EFE78901EDE7B3
:10032000FFF726FFA0EB0801494502D90320BDE8ED
:10033000F0876068696800F00C00B0EB810FEFD1C6
:10034000306800F00700B8420BD9306820F0070091
:1003500038433060306800F00700B84201D0012017
:10036000E5E72878400705D56068E96820F4E06093
:10037000084360602878000706D56068296920F482
:10038000605040EAC100606000F01EF86168084AF1
:10039000C1F30311515CC840064908600648006873
:1003A000FFF706FF0020C2E70020024000100240D5
:1003B00078080008100000200800002001480068AC
:1003C000704700001000002012A185B00FC98DE811
:1003D0000F0014A0144A006804905168134801F0FB
:1003E0000C03042B10D0082B0ED1C1F38343C90397
:1003F0001DF803000AD5516804AAC1F34041515CBD
:100400000A4A5043B0FBF1F005B070470849484331
:10041000FAE7000002030405060708090A0B0C0DA1
:100420000E0F1010010200000010024000127A00AE
:1004300000093D002DE9F84F040070D02078C04D30
:10044000C00749D06868C0F38100012807D06868F8
:10045000C0F38100022809D16868C00306D5286866
:10046000800339D560680028E7D035E06068B0F5D2
:10047000803F0BD010B1B0F5A02F11D0286820F428
:1004800080302860286820F4802002E0286840F44A
:1004900080302860606890B1FFF76AFE06460AE087
:1004A000286840F480202860F0E700BFFFF760FE76
:1004B000801B642873D828688003F7D50CE0FFF709
:1004C00057FE064605E000BFFFF752FE801B64287A
:1004D000F0D828688003F7D420789A4E80074FF030
:1004E00001094FF0000839D5686810F00C0F07D0EB
:1004F0006868C0F38100022809D16868C00306D487
:100500002868800714D52069012808D110E02069E7
:10051000B0B1C6F80090FFF72BFE074605E00AE1F0
:10052000FFF726FEC01B0228C4D828688007F7D52D
:100530002868616920F0F80040EAC10028600DE0F9
:10054000C6F80080FFF714FE074604E0FFF710FE30
:10055000C01B022823D828688007F7D4207800071A
:100560002CD57948A169D9B1C0F80090FFF700FEF9
:10057000074604E0FFF7FCFDC01B02280FD8686A9D
:100580008007F7D571484FF4FA510068B0FBF1F0DD
:10059000009000BF0098411E0091FAD20EE080E06A
:1005A000C0F80080FFF7E4FD074604E0FFF7E0FD38
:1005B000C01B022875D8686A8007F7D420784007E6
:1005C00060D5E8690027C00008D4E86940F0805091
:1005D000E861E869012700F0805000905C480168FC
:1005E000C90513D40168834641F480710160FFF7A7
:1005F000BFFD824606E000BFFFF7BAFDA0EB0A0090
:1006000064284ED8DBF80000C005F5D5E068012865
:100610000AD008B1052813D0286A20F0010028620A
:10062000286A20F0040002E0286A40F001002862F5
:10063000E06841F2883B98B1FFF79AFD82460BE0F3
:10064000286A40F004002862EEE700BFFFF790FD43
:10065000A0EB0A0159455AD8286A8007F6D50CE064
:10066000FFF786FD824605E0FFF782FDA0EB0A0159
:1006700059454CD8286A8007F6D41FB1E86920F0A4
:100680008050E861E06988B36968C1F3810102299B
:1006900044D00228C6F8608004D0FFF769FD044604
:1006A00038E034E0FFF764FD074604E0FFF760FD43
:1006B000C01B02282BD828688001F7D4206AB0F527
:1006C000803F05D16868A16820F400300843686065
:1006D000D4E908010843696821F47411084368608B
:1006E000C6F86090FFF744FD044606E025E000BF31
:1006F000FFF73EFD001B022809D828688001F7D5C6
:100700001BE000BFFFF734FD001B022802D90320C5
:10071000BDE8F88F28688001F4D40EE00128F7D0F6
:100720006868226A00F48031914204D1616A00F461
:100730007010884201D00120EAE70020E8E70000BD
:10074000001002400000424280044242100000209B
:100750000070004010B5401EB0F1807F01D3012031
:1007600010BD4FF0E02460610F21601700F059F8D0
:100770000020A06107202061002010BDFEE7FEE7F9
:10078000704770477047FFF7F9BC30B58FB028212C
:100790006846FFF7CEFC14210AA8FFF7CAFC022422
:1007A0000120049000941020059000254FF4601063
:1007B000CDE9085007946846FFF73CFE0AA90F20D0
:1007C00081E831006002CDE90D0502210AA8FFF79A
:1007D0005FFD0FB030BD00000D48016841F0010120
:1007E000016041680B4A1140416001680A4A1140AA
:1007F0000160016821F480210160416821F4FE015B
:1008000041604FF41F0181600449C00308607047D4
:10081000001002400000FFF8FFFFF6FE08ED00E0C8
:10082000FEE70907090E002804DB00F1E02080F84C
:100830000014704700F00F0000F1E02080F8141D54
:10084000704702E008C8121F08C1002AFAD1704799
:100850007047002001E001C1121F002AFBD1704740
:10086000FFF794FCFFF791FFFFF7A8FD014908602F
:10087000FEE7000000000020000000000000000073
:100880000102030406070809A80800080000002068
:100890001400000042080008BC08000814000020F2
:1008A00004040000520800080000000001000000DD
:0C08B00010000000000000000024F40014
:04000005080000ED02
:00000001FF
