:020000040800F2
:1000000018040020A90100080909000805090008D2
:1000100007090008B5020008B50900080000000043
:100020000000000000000000000000000D090008B2
:10003000B7020008000000000B0900080F090008C3
:10004000C3010008C3010008C3010008C301000880
:10005000C3010008C3010008C3010008C301000870
:10006000C3010008C3010008C3010008C301000860
:10007000C3010008C3010008C3010008C301000850
:10008000C3010008C3010008C3010008000000000C
:10009000000000000000000000000000C301000894
:1000A000C3010008C3010008C3010008C301000820
:1000B000C3010008C3010008C3010008C301000810
:1000C000C3010008C3010008C3010008C301000800
:1000D000C3010008C3010008C301000800000000BC
:1000E000C3010008C3010008C301000800000000AC
:1000F000000000000000000000000000C301000834
:1001000000000000C3010008C3010008C30100088B
:1001100000000000000000000000000000000000DF
:10012000C3010008C3010008C3010008C30100089F
:10013000C3010008000000000000000000000000F3
:10014000000000000000000000000000C3010008E3
:10015000C3010008C3010008C3010008C30100086F
:10016000C3010008C30100080000000000000000F7
:10017000000000000000000000000000000000007F
:1001800000000000C30100080000000000000000A3
:10019000C3010008DFF80CD000F07AF800480047EF
:1001A000F509000818040020064880470648004763
:1001B000FEE7FEE7FEE7FEE7FEE7FEE7FEE7FEE717
:1001C000FEE7FEE799090008950100082DE9F05FB8
:1001D0000546002092469B468846064681464024B6
:1001E0001BE0284641464746224600F041F8534668
:1001F0005A46C01A914110D311461846224600F0C3
:1002000028F82D1A67EB01084F46224601200021ED
:1002100000F01FF817EB00094E41201EA4F1010465
:10022000DFDC484631462A464346BDE8F09FD2B25D
:1002300001E000F8012B491EFBD270470022F6E7CF
:1002400010B513460A4604461946FFF7F0FF20464C
:1002500010BD202A04DB203A00FA02F1002070478A
:100260009140C2F1200320FA03F3194390407047F4
:10027000202A04DB203A21FA02F00021704721FAFB
:1002800002F3D040C2F12002914008431946704762
:10029000064C074D06E0E06840F0010394E80700D3
:1002A00098471034AC42F6D3FFF778FF340A0008C1
:1002B000540A0008FEE77047014880687047000054
:1002C000080000200248816802781144816070476C
:1002D000080000200B4810B5016841F4007101606E
:1002E000016841F480610160016841F4807101603E
:1002F000032000F061F8002000F006F800F024F878
:10030000002010BD003C024070B50D4D04464FF476
:100310007A712878B1FBF0F00A490968B1FBF0F076
:1003200000F0DCFA48B9102C07D200222146501EFA
:1003300000F022F800206C6070BD012070BD00004C
:1003400008000020140000200A4808B5016841F4A4
:1003500080410160006800F4804000900548001F63
:10036000016841F080510160006800F08050009009
:1003700008BD000044380240F0B40E4B1B680C4628
:10038000C3F30223C3F10705042D00D90425191D69
:10039000072901D2002300E0DB1E012606FA05F141
:1003A000491E214099409E40761E16403143F0BCC4
:1003B00000F001BB0CED00E0064900F00702086800
:1003C0004FF6FF03184040EA0220034A104308603A
:1003D000704700000CED00E00000FA052DE9F04741
:1003E0000E46050065D0DFF81481D8F80000F7B29A
:1003F00000F00F00B04207D288F80070D8F8000073
:1004000000F00F00B04254D128683D4C810712D54E
:10041000400703D5206840F4E050206028780007AA
:1004200003D5206840F4604020602068A96820F06F
:10043000F000084320602878C0072DD03049686854
:100440000839012812D0022813D0032811D00968D6
:10045000890700292DDA216821F003010143216079
:10046000FFF72AFF814641F2883A0EE009688903C6
:10047000EFE709688901ECE7FFF71EFFA0EB090130
:10048000514502D90320BDE8F0872068696800F073
:100490000C00B0EB810FEFD1D8F80010404601F00E
:1004A0000F01B14207D90770006800F00F00B04299
:1004B00001D00120E7E72878400705D52068E968E2
:1004C00020F4E050084320602878000706D5206813
:1004D000296920F4604040EAC100206000F01EF865
:1004E0002168084AC1F30311515CC84006490860FD
:1004F00006480068FFF708FF0020C4E7003C024000
:1005000008380240240A0008140000200C000020D3
:10051000014800687047000014000020154810B51D
:10052000006810F00C02144813D01449042A0FD0AC
:10053000082A0ED10F4C241F2268236802F03F02C4
:100540005B0207D52068C0F38810A0FB010106E01C
:10055000084610BD2168C1F38811A1FB00010023EA
:10056000FFF734FE2168C1F30141491C4900B0FB8B
:10057000F1F010BD083802400024F40040787D01FD
:100580002DE9F84F040076D02078DFF838A3CE4D5F
:10059000C00749D0DAF800105046C1F381010129A3
:1005A00008D00068C0F3810002280AD1281D006825
:1005B000400206D52868800336D560680028E2D05E
:1005C00032E06068B0F5803F10D0B0F5A02F286809
:1005D00010D020F480302860286820F48020286023
:1005E0006068A0B1FFF768FE06460CE0286840F49A
:1005F0008030F4E740F480202860F7E7FFF75CFEE6
:10060000801B642873D828688003F7D50CE0FFF7B7
:1006100053FE064605E000BFFFF74EFE801B642830
:10062000F0D828688003F7D42078DFF8A08280070C
:100630004FF000093ED5DAF80010504611F00C0FCB
:1006400009D00068C0F3810002280BD19D48001F2B
:100650000068400206D42868800715D5E0680128A4
:1006600009D111E0E068B8B10120C8F80000FFF737
:1006700023FE064605E020E1FFF71EFE801B022850
:10068000C0D828688007F7D52868216920F0F800CD
:1006900040EAC10028600DE0C8F80090FFF70CFEAA
:1006A000064604E0FFF708FE801B02281FD82868D2
:1006B0008007F7D42078000722D5824E84486169EC
:1006C0006C3671B101210160FFF7F6FD074604E0C9
:1006D000FFF7F2FDC01B022809D830688007F7D564
:1006E0000EE0C0F80090FFF7E7FD074605E082E066
:1006F000FFF7E2FDC01B02287DD830688007F7D4E1
:100700002078400768D5DFF8BCB100270BF1380B23
:10071000DBF80000C0000BD4DBF8001041F0805182
:10072000CBF80010DBF80000012700F080500090AB
:10073000684E3068C00510D4306840F48070306076
:10074000FFF7BAFD009005E0FFF7B6FD0099401AEB
:10075000022850D83068C005F6D55A4EA0686836D1
:1007600001280FD00528306810D020F0010030603B
:10077000306820F004003060A068B8B1FFF79CFD3D
:1007800000900FE0306840F00100F4E740F0040012
:100790003060F7E7FFF790FD0099411A41F2883089
:1007A000814266D830688007F4D50EE0FFF784FDFB
:1007B000009007E0FFF780FD0099411A41F2883070
:1007C000814256D830688007F4D42FB1DBF800108E
:1007D00021F08051CBF80010A069D0B3DAF80020E6
:1007E0005146C2F38102022A4AD00228484607D065
:1007F000C8F8600000E03CE0FFF75EFD04463BE027
:100800004746C8F86000FFF757FD064605E000BF01
:10081000FFF752FD801B02282BD828688001F7D4EF
:10082000D4E907010843A16A2B4A490802EB0141B8
:10083000626A41EA8211084394F82C1040EA01618F
:100840002048001F016001203866FFF735FD04468F
:1008500005E034E0FFF730FD001B022809D82868C6
:100860008001F7D52BE000BFFFF726FD001B022813
:1008700002D90320BDE8F88F28688001F4D41EE077
:100880000128F7D00868E26900F48001914214D190
:10089000226A00F03F0191420FD147F6C071626AAF
:1008A0000140914209D1A26A00F44031914204D141
:1008B000E16A00F07060884201D00120DAE7002090
:1008C000D8E70000083802400038024000004742E4
:1008D000800E4742007000400000FFFF10B5401E30
:1008E000B0F1807F01D3012010BD4FF0E0246061A2
:1008F0000F21601700F05FF80020A0610720206141
:10090000002010BDFEE7FEE7704770477047FFF715
:10091000D9BC000030B593B030216846FFF78EFC9B
:1009200014210CA8FFF78AFC19480025016841F042
:1009300080510160006800F08050119015480168F6
:1009400021F4404141F4004101600068022400F4B8
:1009500040401190012003901020049000940694D0
:100960000820CDE907505420CDE9090404200B905C
:100970006846FFF705FE0CA90F2081E83100E00270
:10098000CDE90F0502210CA8FFF728FD13B030BDFB
:1009900040380240007000400548016841F4700191
:1009A000016003494FF00060803908607047000023
:1009B00088ED00E0FEE70907090E002804DB00F1DE
:1009C000E02080F80014704700F00F0000F1E020F4
:1009D00080F8141D704702E008C8121F08C1002AE1
:1009E000FAD170477047002001E001C1121F002AB0
:1009F000FBD17047FFF76EFCFFF78CFFFFF788FD18
:100A0000074900234FF4967248600868401C08604C
:100A1000642800D10B600220401C9042FCDBF4E70C
:100A2000000000200000000000000000010203049C
:100A300006070809540A00080000002018000000FA
:100A4000D60900086C0A0008180000200004000005
:100A5000E60900080000000000000000010000009E
:0C0A600010000000000000000024F40062
:040000050800019559
:00000001FF
